:020000040800F2
:10000000E00600206D020008811B0008831B000829
:10001000851B0008871B0008891B000800000000E2
:100020000000000000000000000000008B1B000822
:100030008D1B0008000000008F1B0008931B0008A8
:10004000870200088702000887020008870200086C
:10005000870200088702000887020008870200085C
:10006000870200088702000887020008870200084C
:10007000870200088702000887020008870200083C
:10008000870200088702000887020008870200082C
:10009000870200088702000887020008870200081C
:1000A000870200088702000887020008870200080C
:1000B000EB1A000887020008870200088702000880
:1000C00087020008870200088702000887020008EC
:1000D00087020008CB1A0008870200088702000880
:1000E00087020008870200088702000887020008CC
:1000F00087020008870200088702000887020008BC
:1001000087020008870200088702000887020008AB
:10011000870200088702000887020008870200089B
:10012000870200088702000887020008870200088B
:10013000870200080000000000000000870200089D
:10014000870200088702000887020008870200086B
:10015000870200088702000887020008870200085B
:10016000870200088702000887020008870200084B
:1001700087020008870200088702000800000000CC
:1001800000000000870200080000000000000000DE
:10019000870200080000000000000000870200083D
:1001A00000000000000000000000000087020008BE
:1001B00087020008870200088702000887020008FB
:1001C0008702000800F002F800F041F80AA090E869
:1001D000000C82448344AAF10107DA4501D100F002
:1001E00036F8AFF2090EBAE80F0013F0010F18BF8E
:1001F000FB1A43F0010318473C3700005C3700004E
:10020000103A24BF78C878C1FAD8520724BF30C842
:1002100030C144BF04680C60704700000023002414
:1002200000250026103A28BF78C1FBD8520728BF06
:1002300030C148BF0B607047642902F0C7820020BC
:1002400070471FB503F0C7FA1FBD10B510BD02F00F
:10025000B9FB1146FFF7F5FF01F0D0FB02F0D7FB29
:1002600003B4FFF7F2FF03BC02F0DAFB0948804752
:1002700009480047FEE7FEE7FEE7FEE7FEE7FEE788
:10028000FEE7FEE7FEE7FEE704480549054A064BA0
:10029000704700005B1C0008C5010008E00000205A
:1002A000E0060020E0020020E00200202849084388
:1002B00028490860704730B50F23C27801780125BE
:1002C000FAB1244A126801F1E02102F4E062C2F5B9
:1002D000E062C2F30722C2F10404D3404278A24094
:1002E00084781C401443220181F80024007800F037
:1002F0001F018D404009800000F1E020C0F800514E
:1003000030BD01F01F0085404809800000F1E02069
:10031000C0F8805130BD104A114001430D48001F04
:10032000016070470B4A121D0029116801D001437A
:1003300000E08143116070474FF0E0210428086914
:1003400003D020F004000861704740F00400FAE791
:100350000000FA050CED00E080FFFF1FF84801687F
:1003600041F001010160F64A002108321160026883
:10037000F44B1A400260031DF34A1A60F04BF34A33
:1003800084331A60F04A103A1B1D1A60026822F486
:1003900080220260EA480C300160181D016070473D
:1003A000E7490022891C0A70087070470246002045
:1003B000510901290CD002290CD0E1497431096896
:1003C00002F01F02012393400B4200D0012070472E
:1003D000DB49F4E7DA497031F1E718B500204FF452
:1003E000A04400903120FFF7E1FF0099491C0091E3
:1003F000A14201D00028F5D03120FFF7D7FF002817
:1004000000D0012018BDCE4A116821F0F80141EA60
:10041000C00010607047CE4908607047C84900228C
:1004200070310A700A70012802D0042801D1052019
:1004300008707047C7490860704730B541EA8211BB
:100440005A08C54BDDE9034503EB02421143014362
:1004500041EA0460BA4940EA0570091D086030BDF0
:10046000BB490866704740EA81105108BA4A10B586
:1004700002EB01410843B249029C40EA0360843127
:1004800040EA0470086010BDB1498866704740EAD0
:1004900081105108B04A02EB01410843A84940EAE3
:1004A0000360883108607047A94908677047A84908
:1004B000C8647047A24B08331A68084322F0EC6204
:1004C0001043186070479E4B08331A68084322F0A7
:1004D0007842104318607047994A0832116821F039
:1004E000030101431160704795480830006800F02F
:1004F0000C007047924A0832116821F0F001014364
:10050000116070478E4A0832116821F4E0510143AE
:10051000116070478A4A0832116821F4604141EA4B
:10052000C0001060704770B5854B083319688B4C5C
:1005300011F00C0107D06510042906D01A1F0829F4
:1005400005D00C2917D004602DE005602BE0116860
:10055000C1F38056116801F03F0116B1B5FBF1F10E
:1005600001E0B4FBF1F114681268C4F3881461432C
:10057000C2F3014212E01168C1F38056116801F024
:100580003F0116B1B5FBF1F101E0B4FBF1F11468E4
:100590001268C4F388146143C2F30272521C520001
:1005A000B1FBF2F1016019680F2202EA11116C4AE5
:1005B000545C0168E14041601C68072505EA942409
:1005C000145D21FA04F484601B6805EA5333D25C9D
:1005D000D140C16070BDC0F30121032908D1584B3F
:1005E000083319685F4A21F4F81102400A431A607F
:1005F000534970310A68C0F30B0002430A60704728
:10060000544944390860704752494039086070477E
:100610004B4A8C320028106807D020F0C050106080
:10062000106840EA81001060704720F0C0601060E0
:1006300010680843F7E7424A8C320028106807D058
:1006400020F440001060106840EA8100106070479C
:1006500020F44010106010680843F7E7384A8C32E5
:100660001168401E21F01F01014311607047344A98
:100670008C3211686FF0FF0321F4F85103EB002076
:100680000843106070472E4A8C32116821F44031C3
:100690000143116070473449C1F8E0017047284AAE
:1006A00030320029116801D0014300E0814311601C
:1006B0007047234A34320029116801D0014300E019
:1006C0008143116070471E4A38320029116801D0F9
:1006D000014300E0814311607047194A403200290C
:1006E000116801D0014300E0814311607047144A52
:1006F00044320029116801D0014300E081431160B8
:1007000070470F4A10320029116801D0014300E000
:100710008143116070470A4A14320029116801D0E0
:10072000014300E0814311607047054A18320029F7
:10073000116801D0014300E081431160704700005F
:1007400000380240FFFFF6EA10300024003000209D
:1007500000004742800E47420000FFFF0024F400E3
:1007600000000020FFFCFF0F00104742594A0029FB
:10077000116801D0014300E081431160DEE7554A72
:10078000121D0029116801D0014300E0814311606E
:10079000D4E7504A30320029116801D0014300E00B
:1007A00081431160CAE74B4A34320029116801D0F5
:1007B000014300E081431160C0E7464A3832002916
:1007C000116801D0014300E081431160B6E7414A5E
:1007D00040320029116801D0014300E081431160DB
:1007E000ACE73C4A44320029116801D0014300E0E3
:1007F00081431160A2E7374950310128086803D0CE
:1008000020F00800086099E740F00800FAE7314955
:100810006C310128086803D020F0006008608DE783
:1008200040F00060FAE72B4974310128086803D0D2
:1008300020F08050086081E740F08050FAE7254AB8
:1008400070320029116801D0814300E0014311603A
:1008500074E7204974310128086803D020F0005063
:1008600008606BE740F00050FAE71A49743101283C
:10087000086803D020F0806008605FE740F0806087
:10088000FAE7144974310A6822F440020A600A68DF
:1008900002430A6052E70F4A133A0029117801D047
:1008A000014300E08143117048E70A485430016871
:1008B00041F08071016041E70146064A0020143A88
:1008C00012680A4200D0012038E702491239087044
:1008D00034E7000020380240774910B5884206D13D
:1008E00001210846FFF70DFF002101205BE073495D
:1008F000884206D101210220FFF703FF00210220D8
:1009000051E06F49884206D101210420FFF7F9FE2A
:100910000021042047E06B49884206D101210820CC
:10092000FFF7EFFE002108203DE06749884206D12D
:1009300001211020FFF7E5FE0021102033E063497C
:10094000884206D101212020FFF7DBFE0021202074
:1009500029E05F49884206D101214020FFF7D1FEFE
:10096000002140201FE05B49884206D10121802000
:10097000FFF7C7FE0021802015E05749884202D1C9
:10098000012184150AE05549884202D1012144150C
:1009900004E0534988420AD1012104152046FFF79B
:1009A000B0FE00212046BDE81040FFF7AABE10BDF2
:1009B000F0B5002201274FF0030C0B6807FA02F58F
:1009C0002B40AB422CD1066853000CFA03F4A6432B
:1009D00006600E79D0F800E09E4046EA0E060660FA
:1009E0000E79012E01D0022E12D18668A6438660B0
:1009F0004E79D0F808E09E4046EA0E0686604668CA
:100A0000AE43466045688E799640B6B23543456040
:100A1000C568A543C560CC799C40C3681C43C460CD
:100A2000521C102AC9D3F0BD4FF6FF71016000219E
:100A3000017141718171C171704708B541F4803213
:100A40000092C261C1610099C161C169C069009031
:100A500008BD0246002012690A4200D001207047FA
:100A6000006980B270470246002052690A4200D0F5
:100A700001207047406980B270470183704741830D
:100A800070470AB1018370474183704741617047E5
:100A900042694A40426170474B07DB0E9A40C908E1
:100AA00010B500EB8100016A0F249C40A143016254
:100AB000016A1143016210BD0000024000040240BF
:100AC00000080240000C02400010024000140240E6
:100AD00000180240001C0240002002400024024096
:100AE00000280240CD4910B5884206D101211020CE
:100AF000FFF745FE0021102020E0C949884202D1BD
:100B000001214C0429E0C749884202D101218C040B
:100B100023E0C549884202D10121CC041DE0C3492C
:100B2000884202D101210C0517E0C149884209D150
:100B300001212020FFF723FE00212020BDE81040E6
:100B4000FFF71DBEBB49884202D101218C0704E09A
:100B5000B94988420AD1012144052046FFF706FE23
:100B60002046BDE810400021FFF700BE10BD7FB554
:100B70000446008A0D46C98820F440500143218272
:100B8000A08941F20C618843A9882A8911436A89A6
:100B900002431143A181A08A20F44071A88908432F
:100BA000A0826846FFF7BFFC9C48844202D0A04860
:100BB000844201D1039800E00298A189090400EB66
:100BC000C00101EB0010296801D5490000E089004F
:100BD000B0FBF1F06422B0FBF2F109010B096FF0F8
:100BE00018056B4300EB8300A3891D044FF032030B
:100BF00006D503EBC000B0FBF2F000F0070005E003
:100C000003EB0010B0FBF2F000F00F00084320816E
:100C10007FBD4FF41651016000218180C1800181A8
:100C20000C2242818181704710B5028A4C8822F4DF
:100C300070630A8822438C88C9880C4322431A4374
:100C4000028210BD0021018041808180C1807047F7
:100C50000029818902D041F4005101E021F40051C2
:100C600081817047028B02F47F420283028B0A4328
:100C7000028370470029818902D041F4004101E0DC
:100C8000C1F30E01818170470029818A02D041F4AD
:100C9000006101E021F4006181827047C1F3080125
:100CA000818070478088C0F308007047028A22F074
:100CB0000F020282028A0A43028270470029818958
:100CC00002D041F0020101E021F002018181704770
:100CD000828922F40062828182890A43828170477C
:100CE000028A22F020020282028A0A4302827047AC
:100CF0000029018A02D041F4804101E021F48041C1
:100D000001827047818941F001018181704700298A
:100D1000818A02D041F0080101E021F008018182BE
:100D20007047028BD2B20283028B42EA0121018317
:100D300070470029818A02D041F0200101E021F0B2
:100D40002001818270470029818A02D041F0100180
:100D500001E021F0100181827047828A22F00402B2
:100D60008282828A0A43828270470029818A02D065
:100D700041F0020101E021F0020181827047002A66
:100D8000828A01D00A4300E08A438282704710B50C
:100D9000C1F3421301F01F040121A140012B07D030
:100DA000022B07D01430002A026805D00A4304E061
:100DB0000C30F8E71030F6E78A43026010BD0246B7
:100DC000002012880A4200D001207047C9430180E8
:100DD000704770B501F01F0501260024C1F34213CE
:100DE00006FA05F2012B0FD0022B0FD0838A4FEAAF
:100DF00011210088134206FA01F600EA060001D02C
:100E000000B10124204670BD8389F0E7038AEEE734
:100E10000A0A01219140C943018070470010014036
:100E20000044004000480040004C0040005000409A
:100E30000014014000780040007C004010B5012102
:100E40000C022046FFF79BFC2046BDE81040002125
:100E5000FFF795BC30B54268C84B0C791A400B6857
:100E600042EA0422134343608268C54B4D791A401D
:100E7000D1E9034323438C6844EA450423431343E5
:100E80008360C26A097D22F47002491EC9B242EA37
:100E90000151C16230BD0021016001714171816069
:100EA000C1600161012101757047B64B10B5D3F8DF
:100EB0000423B5490A40D0E900142143D0E9024097
:100EC000044321431143C3F8041310BD0021016002
:100ED00041608160C16070470029816802D041F0A3
:100EE000010101E021F00101816070474268A74BD8
:100EF0001A400A434260704741628262704742680A
:100F000022F01F020A43426070479E490028D1F830
:100F1000040302D040F4000001E020F40000C1F816
:100F20000403704797490028D1F8040302D040F425
:100F3000800001E020F48000C1F80403704770B520
:100F4000072609290AD9C568A1F10A0404EB44045B
:100F5000A640B543A3401D43C56007E0056901EB0A
:100F60004104A640B543A3401D4305611F23072A42
:100F700009D2446B521E02EB820293409C43914083
:100F80000C43446370BD0D2A09D2046BD21F02EBDF
:100F9000820293409C4391400C43046370BDC46A39
:100FA0000D3A02EB820293409C4391400C43C46291
:100FB00070BD816841F0804181607047014600202A
:100FC0008968490000D5012070470029816802D056
:100FD00041F4806101E021F4806181607047002963
:100FE000816802D041F0020101E021F0020181603C
:100FF00070474268491E22F4604242EA4131416032
:1010000070470029416802D041F4006101E021F4F9
:10101000006141607047C06C80B270475948D0F899
:10102000080370470029816802D041F4807101E013
:1010300021F48071816070470029816802D041F4F9
:10104000007101E021F40071816070474D49002872
:10105000D1F8040302D040F4005001E020F4005025
:10106000C1F80403704770B5072609290AD9C56875
:10107000A1F10A0404EB4404A640B543A3401D4378
:10108000C56007E0056901EB4104A640B543A340F4
:101090001D430561836BC3F30154121B921C02EBC9
:1010A00082021F249440A34391400B43836370BD8D
:1010B000826B491E22F4401242EA0151816370475B
:1010C00008B508440090026008BD826822F47022CE
:1010D0000A4382607047826822F440120A438260A9
:1010E0007047816841F480018160704701460020AB
:1010F0008968490200D5012070470029416802D063
:1011000041F4806101E021F4806141607047002971
:10111000416802D041F4805101E021F480514160E6
:10112000704708B5084428300090006880B208BDB8
:1011300001238B4041680AB1194300E099434160A3
:1011400070470246002012680A4200D00120704712
:10115000C9430160704730B50246002053680C0A4D
:1011600001258D4011682B40214202D0002B00D078
:10117000012030BD6FEA112101607047FFFEFFFCC6
:10118000FDF7FFC000200140E030FCFFFFFD3FFF06
:10119000A3490844C0F38F2070472DE9F04F9A46C9
:1011A000DDE909B889460346FFF7F2FFC5B2002022
:1011B0004FF0030E0121814011EA090F28D0994E0A
:1011C00036F815400C4326F81540DF6844000EFA47
:1011D00004F6B7430BFA04FC47EA0C07DF601F680C
:1011E00002FA04FCB74347EA0C071F60012A01D04A
:1011F000022A0DD15F6889B28F430AFA00F189B2E1
:101200000F435F60996808FA04F4B1432143996081
:10121000401CC0B21028CDD3BDE8F08F00B5FFF759
:10122000B7FF01218140804802681143016000BD81
:10123000FCB51646DDE907C50C00074608D0FFF7E8
:10124000EDFFCDE900C5324621463846FFF7A5FF40
:10125000FCBD2DE9FC4F9946DDE90BB792460D0028
:10126000064622D0FFF7DAFF002201214FF00F0CD3
:1012700001FA02F028420DD0D00806EB8003186A6C
:101280005407E40E0CFA04F820EA080007FA04F404
:1012900020431862521C102AEAD3CDE9009B534622
:1012A000022229463046FFF778FFBDE8FC8FF0B5F3
:1012B0000E460546FFF76CFF00225A49C4B24FF0B4
:1012C000010C03270CFA02F333420CD028684FEAD2
:1012D000420E07FA0EFE40EA0E00286031F81400B4
:1012E000984321F81400521CD2B2102AEAD3F0BD60
:1012F000F0B500220125032605FA02F30B4205D0C2
:101300000468570006FA07F39C430460521CD2B2EB
:10131000102AF1D3F0BDF0B500220127032607FA09
:1013200002F33C460B4208D00568530006FA03FC62
:1013300025EA0C059C4025430560521CD2B2102AB8
:10134000EDD3F0BDF0B500220125032605FA02F326
:101350000B4205D00468570006FA07F31C430460EB
:10136000521CD2B2102AF1D3F0BDF0B500220126F2
:101370000324022706FA02F30B4209D00568530042
:1013800004FA03FC25EA0C0507FA03F31D43056084
:10139000521CD2B2102AEDD3F0BDF0B500230127C4
:1013A000032507FA03F40C4209D0C6685C0005FA6D
:1013B00004FC26EA0C0602FA04F42643C6605B1C11
:1013C000DBB2102BEDD3F0BD41F48032C261C161BC
:1013D000C261C169C0697047002102E0491C89B23D
:1013E00040080128FAD80846704700B5FFF7D0FE3C
:1013F000012181400C4802688A43026000BD00B5AB
:10140000FFF7C6FE074931F8100000BD00B5FFF731
:10141000BFFE044931F81000C04380B200BD000097
:101420000000FEBF480000203038024010B58AB0EE
:101430000446002001218DF81410C04A8DF80500E3
:10144000BF490490039002908DF80400944203D1A8
:101450000A6842F480720CE0BA4A944203D10A68E6
:1014600042F4007205E0B84A944204D10A6842F49A
:1014700080620A600090089006904FF480300790D8
:101480004FF44070099006A8FFF70FFD694620460B
:10149000FFF7E0FCA06840F00100A0600AB010BDBA
:1014A0001CB501230222CDE9002300230322FFF70C
:1014B000BFFE1CBDA149884202D0A249884202D188
:1014C0002021A24804E0A049884202D12021A0485E
:1014D000E6E7704710B504469848844202D0994820
:1014E000844203D110219948FFF7DAFF96488442DD
:1014F00004D1BDE8104010219548D1E710BD082166
:101500009248CDE704219148CAE702218F48C7E7F6
:1015100001218E48C4E710B504468848844202D0B1
:101520008848844203D102218A48FFF7B9FF8648E0
:10153000844204D1BDE8104008218548B0E710BDC1
:1015400010B504467D48844202D07E48844203D1CF
:1015500001218048FFF7A4FF7B48844204D1011594
:10156000BDE810407A489BE710BD10B504467348AB
:10157000844202D07348844203D180217648FFF729
:101580008FFF7148844204D14115BDE81040704876
:1015900086E710BD10B504466848844202D0694809
:1015A000844203D140216C48FFF77AFF66488442A9
:1015B00004D18115BDE81040654871E710BD10B534
:1015C00004465E48844202D05E48844203D1202112
:1015D0006148FFF765FF5C48844204D1BDE81040D4
:1015E00080215B485CE710BD10B504465348844237
:1015F00002D05448844203D110215748FFF750FFCE
:101600005148844204D1BDE810404021504847E78A
:1016100010BD0821504843E704214F4840E702210C
:101620004D483DE701214C483AE710B504464A4889
:10163000F9B101291FD002291FD003291FD0042985
:1016400021D0052923D0062925D0072927D008290C
:1016500029D009292BD03D480A290AD00B290AD0C4
:101660000C290AD00D290AD00E2924D00F2926D002
:1016700028E0012104E0022102E0042100E0082129
:10168000FFF70EFF1EE02046FFF7AEFF1AE02046F0
:10169000FFF795FF16E02046FFF77CFF12E020469B
:1016A000FFF763FF0EE02046FFF74AFF0AE02046FF
:1016B000FFF731FF06E02046FFF70CFF02E020466F
:1016C000FFF7F8FE2046BDE81040AFE670B50123F5
:1016D000054640F6FF741A46FFF731FCA86840F053
:1016E0008040A86002E02046641E04D3286880077A
:1016F000F9D5E86C80B270BD1048D0F8041341F4FD
:101700008001C0F8041370470C48D0F8041321F48A
:101710008001C0F80413704710B504460523012268
:101720001221FFF70CFCA06840F08040A060206808
:101730008007FCD5E06C80B210BD000000200140A5
:1017400044380240002101400022014000080240CC
:101750000014024000040240000002402DE9F04164
:1017600001211020FEF7C3FF01210846FEF797FF75
:10177000E748FFF759F9E64C022528022571206059
:1017800065710027DFF88C83A7710126E671214679
:101790004046FFF70DF92571680220606571A77159
:1017A000E67121464046FFF703F90722092140462A
:1017B000FFF772F94046BDE8F04107220A21FFF722
:1017C0006BB910B5D448FFF724FAD3480C21D34C99
:1017D00041814FF49641016000210181C1800146A1
:1017E0002046FFF7C4F9012240F225512046FFF7B9
:1017F000CEFA2046BDE810400121FFF729BAC448BF
:101800002521083801700121C170FEF754BD70B563
:101810000C46054680212846FFF7D1FA0028F9D06A
:1018200021462846BDE87040FFF738BA70B50C462F
:10183000054603E02846641CFFF7E9FF21780029EC
:10184000F8D170BD1FB501210846FEF746FF4AF6E4
:10185000C770ADF800004FF47A7001900020ADF829
:101860000800ADF802004FF080446946204600F0C1
:1018700005FB01221146204600F089FE0121204689
:1018800000F074FB1C208DF80C0001208DF80E0078
:101890008DF80F0003A8FEF70EFD1FBD10B55422F2
:1018A0002DED028B96B0B0EE408A9D49684600F05F
:1018B000C9FF9DED000A0A220021B4EEC80A6FF0AC
:1018C0003100F1EE10FA6B4628D2491C03EB81047B
:1018D00094ED000AB4EEC80AF1EE10FA1BDD03EB3A
:1018E000810111ED010AD1ED000A38EE401A70EEC7
:1018F000C00A00EE102AB8EEC00A21EE000A80EEFF
:10190000201A00EE100AB8EEC00A31EE000A16B036
:10191000BDEC028B10BD10449628D6DB00EE100AF9
:10192000B8EEC00AF3E710B52DED028B01F065FCAF
:101930009FED7C8B53EC182B01F0B2FC9FED7B1BD1
:1019400053EC112B01F0ACFC41EC100B51EC180BDB
:1019500053EC102B01F0CAFA9FED761B53EC112BC0
:1019600001F0DEFD41EC100B53EC102B9FED730BDF
:1019700051EC100B01F0BAFABDEC028B41EC100BEC
:1019800010BD10B52DED028BB0EE408A01F068F964
:1019900010EE100A6B49884208DA18EE100A01F0BE
:1019A000A9FE41EC100B01F0CFF80CE010EE100A8C
:1019B00065498842ACDD18EE100A01F09BFE41EC4F
:1019C000100B01F035F8BDEC028B51EC100BBDE8AB
:1019D000104001F0E3BB9BE7034610B50846002129
:1019E000834202D9044618462346904202D914463F
:1019F00002462046491C0229F2DB10BD08B5FFF75C
:101A0000ADFEFFF7DEFEFFF7FAFEFFF71BFF4F4DBF
:101A10000A212846FFF709FE0B212846FFF705FE9D
:101A20003B4C00273D4E4FF00A081C3C0A2128463B
:101A3000FFF74CFEFFF777FF51EC100B01F070F948
:101A400000EE100AFFF72AFFFFF79BFFA0600B21B3
:101A50002846FFF73BFEC4E9030803462E48CDF8AD
:101A600000803BA11030A26800F068FEA0681E282C
:101A700003DCE068B0F5FA7F01DD032000E0192007
:101A8000A061A169606888420DDB3CA13046FFF788
:101A9000CDFE214930461031FFF7C8FE37A1304650
:101AA000FFF7C4FE676020783128BFD133A13046EC
:101AB000FFF7BCFE184930461031FFF7B7FE2FA1E3
:101AC0003046FFF7B3FE2770B0E710B5134C40F275
:101AD00025512046FFF77DF9002805D02046FFF765
:101AE000E1F80B491C39087010BD10B501218C07B5
:101AF000204600F060FD002808D00121204600F0BB
:101B000066FD03481C384168491C416010BD000057
:101B10002C00002000000240600000200010014066
:101B2000E03800086666666666660A4000000000E7
:101B30000000303F000000000000F03F0000000007
:101B400000408F409A99993E3333333F0020014043
:101B500049443A312054656D7065726174757265DF
:101B60003A25642C20536D6F6B653A25642C204810
:101B7000756D69646974793A256400000A0D000086
:101B80007047FEE7FEE7FEE7FEE7704770477047E5
:101B9000704710B5FFF7FCFF10BD00001CB5002119
:101BA000664A00910191106840F4803010604FF453
:101BB000A043106800F4003001900098401C009091
:101BC000019810B900989842F3D11068800342D56B
:101BD0000120019059484030016841F08051016076
:101BE0005749086840F4404008605448083003688A
:101BF0000360036843F400430360036843F4A053A5
:101C00000360041F4F4B2360136843F0807313601D
:101C100013689B01FCD50A6842F480320A604A6866
:101C2000D203FCD50A6842F400320A604A68920383
:101C3000FCD5454A40F205711160016821F00301AD
:101C40000160016841F0020101600168C1F3810196
:101C50000229FAD11CBD01911CBD3C4810B5016898
:101C600041F4700101603548016841F001010160F3
:101C7000324A0021083211600268354B1A40026076
:101C8000031D344A1A60026822F4802202602B4845
:101C90000C300160FFF782FF2C494FF00060803963
:101CA000086010BD70B5254C083420682A4B2B49BC
:101CB00010F00C0007D05D10042806D0221F082861
:101CC00005D00C2817D00B602DE00D602BE01068BC
:101CD000C0F38056106800F03F0016B1B5FBF0F07D
:101CE00001E0B3FBF0F013681268C3F388135843A4
:101CF000C2F3014212E01068C0F38056106800F091
:101D00003F0016B1B5FBF0F001E0B3FBF0F0136853
:101D10001268C3F388135843C2F30272521C520074
:101D2000B0FBF2F0086020680C4AC0F30310121DEB
:101D3000105C0A68C2400A6070BD000000380240B2
:101D400000700040085A4077003C024088ED00E0F7
:101D5000FFFFF6FE103000240024F40034000020C1
:101D6000FE4910B5884206D101210846FEF707FD5D
:101D7000002101205BE0B0F1804F09D0F849884292
:101D80000DD101210220FEF7F1FC0021022070E0BC
:101D900001210846FEF7EAFC0021012069E0F14933
:101DA000884206D101210420FEF7E0FC0021042036
:101DB0005FE0ED49884206D101210820FEF7D6FCFC
:101DC0000021082055E0E949884206D10121102070
:101DD000FEF7CCFC002110204BE0E549884206D1FB
:101DE00001212020FEF7C2FC0021202041E0E14932
:101DF000884206D101210220FEF7C1FC0021022009
:101E000015E0DD49884202D101210C040AE0DB49DA
:101E1000884202D101214C0404E0D94988420AD108
:101E200001218C042046FEF7AAFC00212046BDE8D3
:101E30001040FEF7A4BCD349884206D101214020BE
:101E4000FEF794FC0021402013E0CF49884206D1E0
:101E500001218020FEF78AFC0021802009E0CB4987
:101E600088420AD1841501212046FEF77FFC00211B
:101E70002046BDE81040FEF779BC10BD30B50288A1
:101E8000B64CBC4DA0420DD0A8420BD0B0F1804F53
:101E900008D0B34B984205D0B24B984202D0B24B17
:101EA000984203D122F070034A881A43AF4B9842FC
:101EB00006D0AF4B984203D022F440730A891A43EC
:101EC00002804A68C2620A880285A04201D0A84204
:101ED00001D1897A01860121818230BD4FF0FF3125
:101EE000416000210180018141808172704701853C
:101EF00082827047028822F070020A430280704793
:101F000041627047C1627047406A7047008D7047F8
:101F10000029018802D041F0020101E021F0020114
:101F2000018070470029018802D041F0040101E0DE
:101F300021F00401018070470029018802D041F09E
:101F4000800101E021F0800101807047028822F0C9
:101F50000802028002880A4302807047028822F445
:101F60004072028002880A4302807047002901887B
:101F700002D041F0010101E021F001010180704730
:101F800030B5028C22F001020284028C8388048B1B
:101F900022F0020224F073050C882C438D8915432E
:101FA0004A882A436D4DA84202D0724DA8420DD1F5
:101FB00022F00805CA8923F440732A4322F004055D
:101FC0008A882A430D8A1D434B8A2B4383800483CE
:101FD00089684163028430BD70B5028C22F0100222
:101FE0000284028C8388048B0D8824F4E6464FF625
:101FF000FF7404EA052535438E8922F0200204EAA5
:10200000061616434A8804EA02123243534EB0427F
:1020100002D0584EB04215D122F08006CA8923F46E
:10202000406304EA0212324322F040068A8804EA3E
:10203000021232430E8A04EA86061E434B8A04EAE1
:10204000830333438380058389688163028470BD81
:1020500070B5028C22F480720284028C8388848B97
:102060000D8824F0730425438E894FF6FF7422F403
:10207000007204EA062616434A8804EA0222324322
:10208000364EB04202D03B4EB04215D122F400662B
:10209000CA8923F4405304EA0222324322F48066C0
:1020A0008A8804EA022232430E8A04EA06161E4394
:1020B0004B8A04EA03133343838085838968C163B1
:1020C000028470BD70B5028C22F480520284058CAB
:1020D0008288838B0C8823F4E6464FF6FF7303EA6D
:1020E0000424344325F400568D8903EA053535432D
:1020F0004E8803EA06362E43184DA84202D01D4DE5
:10210000A84205D122F480450A8A03EA82122A43B2
:102110008280848389680164068470BD0021018007
:102120004180818081608181C181018241827047CB
:1021300030B50124058C00F118038C40A5430584BB
:1021400031B308292CD0091FC1F34E00184401688F
:1021500048F6FF731940016001681AE00000014071
:102160000004004000080040000C00400010004047
:1021700000140040000401400040014000440140C0
:102180000048014000180040001C004000200040B2
:1021900006E04FF6FF7303EA02221143016030BDEF
:1021A00003EB510001684FF68F731940016001681D
:1021B000F3E74163704781637047C163704701640F
:1021C0007047028B22F070020A4302837047028B31
:1021D0004FF6FF7322F4E04203EA01211143018329
:1021E0007047828B22F070020A4382837047828B91
:1021F0004FF6FF7322F4E04203EA01211143818389
:102200007047028B22F008020A4302837047028B58
:102210004FF6FF7322F4006203EA012111430183A8
:102220007047828B22F008020A4382837047828BB8
:102230004FF6FF7322F4006203EA01211143818308
:102240007047028B22F004020A4302837047028B1C
:102250004FF6FF7322F4806203EA012111430183E8
:102260007047828B22F004020A4382837047828B7C
:102270004FF6FF7322F4806203EA01211143818348
:102280007047028B22F080020A4302837047028B60
:102290004FF6FF73C2F30E0203EA012111430183DB
:1022A0007047828B22F080020A4382837047828BC0
:1022B0004FF6FF73C2F30E0203EA0121114381833B
:1022C0007047028C22F002020A4302847047028C9B
:1022D00022F008020A4302847047028C4FF6FF7313
:1022E00022F0200203EA0111114301847047028C9D
:1022F0004FF6FF7322F0800203EA011111430184BB
:102300007047028C4FF6FF7322F4007203EA01213A
:10231000114301847047028C4FF6FF7322F4006270
:1023200003EA0121114301847047028C4FF6FF73C9
:1023300022F4005203EA013111430184704710B5C1
:102340000123048C8B409C430484038C8A401343F8
:10235000038410BD10B50423048C8B409C4304847B
:10236000038C8A401343038410BD828B22F44062A5
:102370008283828B4FF6FF7303EA01210A43828333
:102380007047828B22F00C028283828B0A43828305
:102390007047028B22F440620283028B4FF6FF7378
:1023A00003EA01210A4302837047F0B5048C24F04C
:1023B00010040484078B068C4FF6FF7404EA0115A1
:1023C00027F4734704EA0331394304EA02220A433B
:1023D00026F0A001294341F0100102830184F0BDE1
:1023E000028B22F00C020283028B0A4302837047A5
:1023F0002DE9F0410C460E884988A28823890546BC
:102400000EB3042E26D0082E2E8C4FF6FF7028D047
:1024100026F480562E84AF8B2E8C00EA022200EA2E
:10242000013127F473473A4300EA0330104326F49E
:1024300020420A4342F48051A8832984E188284637
:10244000BDE8F04191E700F062F9E1882846BDE877
:10245000F041C5E7FFF7A9FFE1882846BDE8F04154
:1024600097E726F480762E84AF8B2E8C00EA01212C
:1024700000EA0310104327F0F307384326F42062E4
:102480000A4342F48071A8832984E1882846BDE884
:10249000F04176E700210180418001228280C180E5
:1024A000018170472DE9F0410C4600264988074616
:1024B000012501B90226A288012A00D1022520881F
:1024C00023890028384610D0FFF76FFFE18838468F
:1024D000FFF75FFF23892A463146384600F017F997
:1024E000E1883846BDE8F0417AE700F010F9E1886C
:1024F0003846FFF775FF23892A4631463846FFF7ED
:1025000054FFE1883846BDE8F04142E7406B704730
:10251000806B7047C06B7047006C704710B50A88BD
:102520004B88CC881A438B8823431A430B891A4360
:102530004B8989891A430A43A0F8442010BD002121
:10254000018041808180C18001814181818170470A
:10255000002930F8441F02D041F4004101E0C1F3EA
:102560000E01018070470029818802D041F00401EA
:1025700001E021F00401818070470029818802D0A8
:1025800041F0010101E021F0010181807047002A42
:10259000828901D00A4300E08A43828170478182A8
:1025A000704702460020128A0A4200D0012070477C
:1025B000C9430182704702460020138A92890B4268
:1025C00002EA010202D0002A00D001207047C9436C
:1025D000018270471143A0F848107047002A828991
:1025E00001D00A4300E08A43828170470029818834
:1025F00002D041F0080101E021F00801818070471C
:10260000018921F0070101817047028922F07002DF
:102610000A430281704700B50346FFF7F6FF1889A9
:1026200040F00700188100BD70B516460D466029C0
:1026300004464FF0010231460AD000F068F82946FE
:102640002046FFF7E2FF208940F00700208170BD9F
:10265000FFF7ABFEF3E730B504894FF6FF7505EAE7
:1026600003231343E4B20B432343038130BD10B56E
:102670000446FFF7F0FF208940F07700208110BD6D
:1026800010B50446FFF7E7FF208940F48040208121
:1026900010BD828822F07002828082880A43828084
:1026A0007047028922F00702028102890A430281EF
:1026B0007047028922F08002028102890A43028166
:1026C000704770B50589048B068C25F007050D430E
:1026D0004FF6FC410C4040F201110C434FF6FF71E4
:1026E00001EA031126F022061143314305810483D8
:1026F000018470BD0029818802D041F0800101E091
:1027000021F0800181807047A0F85010704770B5AB
:10271000048C24F001040484058B048C4FF6FF76AE
:1027200006EA0313134325F0F3052B4324F00A02B2
:102730000A4342F001010383018470BD0FB41CB54C
:10274000074B06AA7B4469460090059800F019F9EA
:102750000020694600F028F91CBC5DF814FB00005D
:10276000610200002DE9F0410E460446002020627F
:102770002046E168884730B3252805D0D4E90121F7
:102780009047206A401CF2E7E1682046002788470E
:10279000050018D0A5F14100192802D820354FF4C2
:1027A00000673246294620462760FDF745FD40B1C7
:1027B000012804D0F61D26F007060836D8E7361D96
:1027C000D6E72846DAE7206ABDE8F0812DE9F04136
:1027D0000646002410687529314616A510D0AFF3BF
:1027E0000080002802DA404213A507E031688A071A
:1027F00001D512A502E0490704D511A5012401E085
:10280000AFF3008000210A2206F1240709E0B0FBA3
:10281000F2FCB0FBF2F302FB1C0030307854184697
:10282000491C0028F3D123462A463046BDE8F04132
:1028300000F048B8000000002D0000002B00000050
:102840002000000010B5203AC0F00B80B1E818500D
:10285000203AA0E81850B1E81850A0E81850BFF48A
:10286000F5AF5FEA027C24BFB1E81850A0E8185029
:1028700044BF18C918C0BDE810405FEA827C24BF7D
:1028800051F8043B40F8043B08BF7047D20728BF0B
:1028900031F8023B48BF11F8012B28BF20F8023B5A
:1028A00048BF00F8012B704770477047704710B55C
:1028B00000F080F8006810BD10B5044600F07AF80A
:1028C000046010BD2DE9F0470D4699469246044636
:1028D00000F124080168880604D5E06921F01001A0
:1028E000216000E00120A84201DD471B00E0002735
:1028F000A1697A1902EB0900081AA0612078C006C4
:1029000002D42046AFF30080002608E0D4E901217C
:102910001AF806009047206A401C761C20624E453B
:10292000F4DB2078C0060AD52046AFF3008006E02D
:10293000D4E9012130209047206A401C2062381ED3
:10294000A7F10107F4DC07E0D4E9012118F805003C
:102950009047206A401C2062281EA5F10105F3DC87
:102960002046AFF300802078000602D50220BDE8A3
:10297000F0870120FBE7000001694A1C026108782A
:10298000704700B58FB0CDE90131002105910549AF
:102990007944CDE9031011466846FFF7E3FE0FB016
:1029A00000BD0000E5FFFFFF0A6802F8010B0A60A6
:1029B00070470000004870478000002000487047C2
:1029C000800000207546FFF7F9FFAE460500694616
:1029D000534620F00700854618B020B5FDF754FC9B
:1029E000BDE820404FF000064FF000074FF0000810
:1029F0004FF0000B21F00701AC46ACE8C009ACE891
:102A0000C009ACE8C009ACE8C0098D46704710B5F4
:102A10000446AFF300802046BDE81040FDF720BC1F
:102A200001491820ABBEFEE72600020070470000F7
:102A30002DE9F0412DED020B9FED3D0B2DED028BAD
:102A40009FED3D8BDDE90254C4F30A50A0F2FF363E
:102A5000142E37DA002E18DA53EC102B9DED020BF2
:102A600051EC100B00F08EF953EC182B00F016FD12
:102A700057D2002CBCBF4FF00044002551DB54EA74
:102A8000050018BF2E4C1BD14BE02E4820FA06F74C
:102A900004EA070028431FD053EC102B9DED020BD6
:102AA00051EC100B00F06EF953EC182B00F0F6FC13
:102AB00037D2002C03DD4FF48010F0400444BC43B7
:102AC00000252EE0332E07DCA6F114004FF0FF3175
:102AD00021FA00F73D4206D19DED020BBDEC028BC1
:102AE00002B0BDE8F08153EC102B9DED020B51ECD0
:102AF000100B00F009FD53EC182B00F0CFFC10D2A6
:102B0000002C0DDD142E08BF641C09D0C6F1340062
:102B1000012101FA00F02844A84238BF641C054690
:102B2000BD43CDE902549DED020BD7E70000000044
:102B30009C7500883CE4377E000000000000000027
:102B40000000F03FFFFF0F002DE9F0412DED020BDB
:102B50009FED3D0B2DED028B9FED3D8BDDE902548A
:102B6000C4F30A50A0F2FF36142E37DA002E18DA1A
:102B700053EC102B9DED020B51EC100B00F002F901
:102B800053EC182B00F08AFC57D2002CA4BF002471
:102B9000254652DA24F00040284318BF2E4C4CD072
:102BA0001AE02E4820FA06F704EA070028431FD04F
:102BB00053EC102B9DED020B51EC100B00F0E2F8E2
:102BC00053EC182B00F06AFC37D2002C03DA4FF4D8
:102BD0008010F0400444BC4300252EE0332E07DC77
:102BE000A6F114004FF0FF3121FA00F73D4206D163
:102BF0009DED020BBDEC028B02B0BDE8F08153EC01
:102C0000102B9DED020B51EC100B00F07DFC53ECF2
:102C1000182B00F043FC10D2002C0DDA142E08BF44
:102C2000641C09D0C6F13400012101FA00F02844E7
:102C3000A84238BF641C0546BD43CDE902549DED52
:102C4000020BD7E7000000009C7500883CE4377E4B
:102C500000000000000000000000F0BFFFFF0F00B8
:102C600010B52DED028BF0EE408A18EE900AB0EE12
:102C7000608A20F00040C0F1FF40C00F07D118EE7D
:102C8000100A20F00040C0F1FF40C00F2BD018EE1A
:102C9000101A18EE900A00F0A3FD00EE100A10EED4
:102CA000100A6FEAD05010F0FF0F04BFBDEC028B8A
:102CB00010BD18EE900A00F0004110EE100A00F06E
:102CC0000040814204BFBDEC028B10BD18EE101A0B
:102CD00010EE100ABDEC028B61F31E0000EE900AAC
:102CE00030EE600A10BD18EE900A4FF07F41B1EB54
:102CF000400F1CBF18EE100A5FEA4000C7D1012048
:102D0000FFF7DAFDBDEC028BBDE81040AFF30080A9
:102D1000DFED020A80EEA00A70470000000000000C
:102D200021F00042A2F16052B2F5801F01F0004391
:102D300028BFD2F17F6C0BD95FEA001C43EAC202C4
:102D400042EB507018BF704728BF20F00100704759
:102D5000B2F5801FBCBF184670474FEA410C1CF506
:102D6000001F02D2084600F0B5BD70B500F042FB6E
:102D700000000089FFF7F6BF4FF00040A0F580008B
:102D80007047000010B591EA030F48BF83F000437D
:102D900000F1CE83841A71EB030C05D2121943EBB8
:102DA0000C03001B61EB0C01DFF824E14FEA115426
:102DB000A4EB135C1EEA430F18BF9EEA445F73D076
:102DC00023EA0E03DCF1200E21EA045143F48013C0
:102DD00032D322FA0CFE10EB0E0023FA0CFE41EB6C
:102DE0000E01CCF1200E03FA0EFE10EB0E0051F195
:102DF0000001B1F5801FCCF1200E32D201EB04515D
:102E000012FA0EF2BDE8104058BF7047401C38BFA0
:102E10005FEA420218BF7047002814BF20F001008B
:102E200041F100014FEA410313F5001F38BF70471D
:102E3000A1F1C04100F02CBB012A43EB0302ACF12D
:102E4000200CDCF11F0E32BF4FF0000E23FA0CF302
:102E500010EB030041EB0451B4EB115FD0D0A1EBB8
:102E6000045101F5801149085FEA300001EB04517B
:102E70000ED350F1000038BF12FA0EFE08D1BDE8A3
:102E80001040C9E7401C38BF5FEA4202CAD1C3E71D
:102E9000BDE810404FEA410313F5001F38BF7047EB
:102EA000A1F1C04100F0F4BA9EEA445F08D011EAF3
:102EB0005E0FBDE8104004BF01F0004100207047E4
:102EC000BDE8104070B500F095FA00BF64FBBE3E4F
:102ED0000000E0FF491058BFC1F140415B1058BFEE
:102EE000C3F140438B42EFF3008070472DE9C041AE
:102EF00030B4DFF8A0C23CEA111418BF3CEA131446
:102F000000F0EC8081EA03051CEA111444EAD57450
:102F100018BF1CEA131500F0C780A4EB05044FF09E
:102F2000004545EAC12145EAC32341EA505143EA3D
:102F3000525304F17F74994204F500344FEAC020E3
:102F40004FEAC22208BF904200F09C804FEA13650E
:102F50000FF24016765D4FEA134506FB05F7C7F101
:102F6000807706FB07F74FEAD737A7FB036876425F
:102F7000C8F58038A7FB06CE38BFA8F1010807FBCB
:102F800008E64FF0000EA6FB028CE6FB03CEDCF158
:102F9000000CCEF1004E38BFAEF1010EA6FB0C586E
:102FA0004FF000074FF00005E6FB0E87A1FB08C6B7
:102FB000A0FB07CE16EB0E0645F10005E1FB076509
:102FC00015F1E04E7EBFA4F580345FEA46066D4100
:102FD00016F1800745F100054FEA17274FEA06660C
:102FE00047EA0567A6F1DE46B6F1805F4FEA152590
:102FF0001FD9384624F0010C05EBC471BCF1FE6FFB
:1030000001EB0C1102D8F0BCBDE8008124425CBF8A
:1030100001F5801E9EEAC47F02D4F0BCBDE80081A9
:10302000244238D4F0BCA1F1C041BDE8004100F019
:103030002FBA4FEAD22242EA43524FEAD323A7FBE8
:1030400002864FEAD02040EA415007FB03661EEAA1
:103050000E0F4FEAD12105FB026658BFA6EB0056C2
:10306000B6EB00564FEA520E4EEAC37E18EB0E0E38
:1030700056EB530EBDD518EB02085E417F1C55F18F
:103080000005B6E74FF480154FF000074FF000063B
:103090004FF00008ADE7F0BC4FF0000001F1C04177
:1030A00001F00041BDE8008111EA0C1F0CEA131584
:1030B00000D00CE013EA0C1F00F025804FF0000058
:1030C000F0BC81EA030101F00041BDE80081F0BCE1
:1030D000BDE8004181EA030100F0DAB9F0BCBDE8C7
:1030E000004170B500F086F9097EFC3E00F007B89B
:1030F00081EA03014FF0000001F00041704781EACE
:10310000030100F0C5B9F0BCBDE800414FF000007C
:1031100021497047FFFDFBF9F7F5F4F2F0EEEDEB16
:10312000E9E8E6E4E3E1E0DEDDDBDAD8D7D5D4D3C5
:10313000D1D0CFCDCCCBCAC8C7C6C5C4C2C1C0BF11
:10314000BEBDBCBBBAB9B8B7B6B5B4B3B2B1B0AF17
:10315000AEADACABAAA9A8A8A7A6A5A4A3A3A2A1FB
:10316000A09F9F9E9D9C9C9B9A99999897979695B6
:1031700095949393929191908F8F8E8E8D8C8C8B52
:103180008B8A8989888887878685858484838382DA
:10319000828181800000FF070000F87F4FEA410331
:1031A0004FEA5353A3F58063D3F11E03C8BFD3F195
:1031B000210C0CDD4FF0004242EAC12242EA50529B
:1031C00032FA03FC8CEAE17CACEBE1707047102B27
:1031D000C4BF0020704703F5787CBCF1FF3F04D0EA
:1031E0006FF0004282EA2100704770B500F002F9EA
:1031F0004992248000207047F2E710F0004248BF57
:103200004042B0FA80F310FA03F10AD0C3F11D0373
:1032100003F580634FEA415002EB035202EBD121E8
:1032200070474FF00000704751EA030C17D41CF5AB
:10323000801F58BFBCF5801F00F10680994218BF5F
:10324000704708BF9042704707D711F5801F58BFDD
:1032500013F5801F19D499427047894270471CF5B5
:10326000801F08D5BCF5801FF7D58B4218BF70476B
:1032700008BF824270474FF4001C1CEB410F38BF5F
:103280001CEB430F01D28B42704770B500F0B2F8CF
:10329000922449004FF000514FF08053FFF71ABEBF
:1032A000DFF848C170B51CEA111E1EBF1CEA1315D9
:1032B0009EEA0C0F95EA0C0F00F06F8081EA030480
:1032C00023EA4C134EEAD47E21EA4C1141F48011DA
:1032D00043F48013AE44A1FB024CA0FB0365AEF1A6
:1032E0007F7E361955EB0C05A1FB034C4CF1000316
:1032F000A0FB021C16EB0C06654153F100030942CA
:1033000018BF46F0010613F4007F0BD14FEA0331DA
:103310004FEA0530340341EA155140EA16506FF088
:1033200003020AE04FEAC3214FEAC520F40241EA52
:10333000555140EA56506FF0020202EB2E4201EB6B
:10334000025585EACE710AD05FEA440C18BF24F01A
:10335000004450F1000041F1000120EAD47040F235
:10336000FE7C624500D270BDA84214BF4FF080447D
:103370004FF04044002E08BF0024BEF1806FA8BF6C
:10338000A1F1C041BDE8704080F282804FF00000A2
:1033900001F1C04101F0004170479EEA0C0F0CEAB8
:1033A000131518BF95EA0C0F06D04FF0000081EA04
:1033B000030E0EF0004170BD00F01CF88900013EC4
:1033C00000F007B800F009B84FEA430C5FEA5C5C14
:1033D00008D081EA030100F05BB84FEA410C5FEAD4
:1033E0005C5CF6D14FF00000014970470000FF0718
:1033F0000000F87F0EF1020E2EF0030E5EF8046B53
:10340000364205D4012A43EB030515F5001F12D8F7
:10341000012841EB010C1CF5001F0CD80ED14FEA1E
:10342000D17C15F5001F0CEB4C0C0CF1020C08BF05
:103430004CEBD37C04E04FF0080C01E04FEAD37C66
:103440000CEB4C0526FA05F606F00706B6F1040C5F
:1034500006D20EEB860CBDE870404CF0010C6047C4
:10346000DFE80CF0090B02024FF000414FF00000C2
:10347000A1F5002170BD19461046012851EB010449
:1034800018BFD4F5001484BF002001F0004170BDC6
:103490000808A0F500114FEA3101704753EA010C0A
:1034A00017D41CF5801F58BFBCF5801F00F10680A3
:1034B0008B4218BF704708BF8242704707D713F589
:1034C000801F58BF11F5801F19D48B4270479B4253
:1034D00070471CF5801F08D5BCF5801FF7D59942B1
:1034E00018BF704708BF904270474FF4001C1CEB98
:1034F000430F38BF1CEB410F01D2994270470FB404
:103500000CBC03BCFFF7C1BE91EA030F10B581F0FC
:1035100000413FF53FAC83F0004300F009B80000E4
:1035200010B591EA030F48BF83F000433FF532AC7A
:10353000841A71EB030C07D212198CF0004C43EB88
:103540000C03001B61EB0C01DFF8A4E14FEA1154FE
:10355000A4EB135C1EEA430F18BF9EEA445F00F021
:10356000B08023EA6E03524221EA0451C3EB6E039A
:1035700038BF5B1EDCF1200E25D322FA0CFE10EBC7
:103580000E0043FA0CFE41EB0E01CCF1200E03FAC3
:103590000EFE10EB0E0051F10001CCF1200E29D4EB
:1035A00012FA0EF201EB0451BDE8104058BF70470B
:1035B000401C1CBFB2F1004F704700280CBF491CD3
:1035C00020F00100704712EB020E43EB030218BF1C
:1035D0004FF0010E4EEA4202ACF1200CDCF11E0E5F
:1035E00054D943FA0CFE10EB0E0051F1FF31CCF12F
:1035F0001E0ED5D50EF1010E12FA0EFE404141EB22
:10360000010101EB445C5FEA5C5C10D910EBDE70F9
:1036100001EB045138BFBEF1004FBDE8104018BFA8
:10362000704700280CBF491C20F00100704730D2C1
:103630004FEAD42C11F5001124F400641BD0B1FA28
:1036400081F20B3AA41AA41ED2F12003914030FA61
:1036500003F31943904001EBCC71002C01EB0451B2
:10366000BDE81040A8BF704701F1C0414FF0000015
:1036700001F000417047B0FA80F310FA03F100D175
:1036800010BDE41A173C4805C90AE4E701EB0451F0
:1036900010BD491001EB0451BDE810404FEA300065
:1036A00002E04FF0000170474A0008BF0042F8D026
:1036B000B2F5001F28BF704701F000414FF0000035
:1036C00070479EEA445F07D011EA5E0FBDE81040E4
:1036D00004BF002100207047BDE8104070B5FFF71F
:1036E00089FE00BF40DFF63E83F000411046704780
:1036F0000000E0FF43004FEAD30C4FEA3C0C43408C
:103700001FBF40070CF1605113F0FE4F70471CF0D3
:10371000006F03D100200CF0004170470CF0004313
:1037200043EA507010B540EACC0000F00EF800BF3C
:10373000000000924FEA0001FFF7AABE4FF00041DF
:103740004FF00000A1F5002170470EF1020E2EF09F
:10375000030E5EF8044B244204D44FEA4102B2F156
:103760007F4F11D84FEA4003B3F17F4F0CD80ED1F1
:103770004FEAD07CB2F17F4F0CEB4C0C0CF1020CF9
:1037800008BF4CEBD17C04E04FF0080C01E04FEA9D
:10379000D17C0CEB4C0324FA03F404F00704B4F1DD
:1037A000040C06D20EEB840CBDE810404CF0010C6A
:1037B0006047DFE80CF0070802024FF00040A0F578
:1037C000800010BD0846420018BFD2F1807288BF49
:1037D00000F0004010BD4FF04070E1EE100A70475D
:1037E0004FF07F4C3CEA410318BF3CEA400200F036
:1037F00062804FF47F0C10F0004F0CEAD11318BF19
:1038000043F005031CEAD01218BF13EA0C0F00F0B6
:1038100057804FF0004C4CEA00204CEA0121A3F500
:1038200080339A4210DDB0F1004F23F0020306D33B
:10383000401A43F00203BCBF404283F001034FEA49
:103840004000A2F58032ECE74FEA224CBCEB234F5C
:1038500008DB884206D31CD0A0EB4100C0F1000079
:1038600083F0010340001DD217D40DD0B0FA80FCC4
:103870000CF1010C00FA0CF0A2EB0C42D2F1000C9E
:1038800012DB4FEAC37070474FEA437000F000400C
:10389000704713F0020FE5D0DEE7B2F580324FEA51
:1038A0004000EBDD002AE9DD4FEAC21242EA502077
:1038B00040EAC370704710B5FFF747FFEDFFFF3ECA
:1038C0001CEAD11F02D000F000407047004870474A
:1038D0000000C07FFF2141EAD050C00570470000C2
:1038E00000C0004400C00D4400001C4400002B44F4
:1038F00000C03A4400C04B4400805D440040704426
:103900000000824400408C44002097440060A244A0
:103910000000AE440040BA4400E0C6440000D44475
:1039200000A0E1440060EF4400E0FC4400C0044516
:1039300000300A455439000800000020480000000B
:10394000000200089C39000848000020980600008A
:103950001C0200080000000001020304010203042D
:103960000607080900000000000000000000000039
:103970000000000000000000000000000000000047
:1039800000000000000000000095BA0A00000000DE
:0C39900000000000010203040607080903
:04000005080001C529
:00000001FF
